:020000040000FA
:04000000B8EF0AF05B
:101000000030313233343536373839414243444584
:10101000460052656164696E6720454550524F4DE8
:101020000045726173696E6720454550524F4D000F
:0110300000BF
:10103200000E0C6E0ABE22EF08F020EF08F02AEF35
:1010420008F0096C0A1ED8B00A2A010E0C6E2AEFAB
:1010520008F008BE31EF08F02FEF08F039EF08F082
:10106200076C081ED8B0082A010E0C1A39EF08F0D6
:10107200000E0E6E000E0D6E09500A10D8B444EF29
:1010820008F046EF08F07AEF08F0010E0B6E50EF11
:1010920008F0D89009360A360B2A50EF08F00AAE4B
:1010A20055EF08F057EF08F04AEF08F05BEF08F051
:1010B2005BEF08F0D8900D360E360950075C0A50E7
:1010C2000858D8A067EF08F069EF08F070EF08F051
:1010D2000950075E0A50085A0D8070EF08F0D89048
:1010E2000A3209320B2E5BEF08F07AEF08F07AEF42
:1010F20008F00C50D8B480EF08F082EF08F088EFC7
:1011020008F00D6C0E1ED8B00E2A88EF08F00DC044
:1011120007F00EC008F08EEF08F01200000E066E07
:1011220002BE98EF08F096EF08F0A0EF08F0016C0D
:10113200021ED8B0022A010E066EA0EF08F004BE0D
:10114200A7EF08F0A5EF08F0ADEF08F0036C041E5E
:10115200D8B0042AADEF08F003500410D8B4B4EFAD
:1011620008F0B6EF08F0E6EF08F0010E056EC0EFEA
:1011720008F0D89003360436052AC0EF08F004AE12
:10118200C5EF08F0C7EF08F0BAEF08F0CBEF08F0B0
:10119200CBEF08F00350015C04500258D8A0D4EF02
:1011A20008F0D6EF08F0DCEF08F00350015E0450BF
:1011B200025ADCEF08F0D89004320332052ECBEF4E
:1011C20008F0E6EF08F0E6EF08F00650D8B4ECEFCE
:1011D20008F0EEEF08F0F4EF08F0016C021ED8B050
:1011E200022AF4EF08F001C001F002C002F0FAEFA7
:1011F20008F012004B0E026E000E016EEEEC09F0CA
:1012020009EC0AF0210E026E100E036E5FEC09F07B
:10121200000E166E000E156E152806E11628D8A4CB
:1012220015EF09F017EF09F01BEF09F030EF09F0A5
:1012320030EF09F015C004F0000E056E16507DEC7B
:101242000AF0154A162A152806E11628D8A42CEF0A
:1012520009F02EEF09F01BEF09F030EF09F0120E42
:10126200026E100E036E5FEC09F0000E186E000E97
:10127200176E172806E11828D8A442EF09F044EFA8
:1012820009F048EF09F05DEF09F05DEF09F017C0D2
:1012920004F018501FEC0AF099EC09F0174A182ACA
:1012A200172806E11828D8A459EF09F05BEF09F0D6
:1012B20048EF09F05DEF09F000EF00F0000E066E56
:1012C20078EF09F00650010D02C004F003C005F0EA
:1012D200F3500426F450052204C0F6FF05C0F7FFC0
:1012E2000800F5509BEC0AF0062A78EF09F0065048
:1012F200010D02C004F003C005F0F3500426F450BF
:10130200052204C0F6FF05C0F7FF0800F5500009EA
:10131200D8A48EEF09F090EF09F063EF09F092EF95
:1013220009F00D0E9BEC0AF00A0E9BEC0AF012007B
:101332000F6E0FC007F0086A000E0A6E640E096E87
:1013420019EC08F00750300F9BEC0AF0000E046E07
:10135200640E036E0FC001F0026A8FEC08F001C048
:1013620007F002C008F0000E0A6E0A0E096E19ECB0
:1013720008F00750300F9BEC0AF00FC001F0026A30
:10138200000E046E0A0E036E8FEC08F00150300F4F
:101392009BEC0AF00D0E9BEC0AF00A0E9BEC0AF095
:1013A2001200D6EF09F0D6EF09F0C7B4DBEF09F06F
:1013B200DFEF09F0016A012AE0EF09F0016AC55086
:1013C2001F0B01100009D8A4E9EF09F0EBEF09F0B7
:1013D200D6EF09F0EDEF09F01200948C948E0F0114
:1013E2003A9F000EAC6E000EAB6EAC98AC9CAB9C00
:1013F200AB88AB969D8A9D98AC84B8860C0EAF6E76
:10140200000EB06EAC8AAB8E9E9A9D8AF28C120050
:10141200948694880F013A973A99280EC66E00F086
:1014220000F000F0090EC86E00F000F000F0C78E68
:10143200C78CCB9ACB9C9E96A1961200056EBFECF0
:101442000AF00550CBEC0AF00450CBEC0AF0C5ECE4
:101452000AF035EC0AF0066E8CEC0AF05DEC0AF04C
:10146200065034EF0AF01200000E026ED2EC09F0C0
:101472009E96C5863DEF0AF0C7A042EF0AF044EF00
:101482000AF03DEF0AF09E96C9CF02F002504AEFF1
:101492000AF01200026ED2EC09F09E9602C0C9FF59
:1014A20053EF0AF09EA658EF0AF05AEF0AF053EFF4
:1014B2000AF05CEF0AF01200D2EC09F09E96C584A5
:1014C20063EF0AF09EA668EF0AF06AEF0AF063EF94
:1014D2000AF06CEF0AF01200D2EC09F09E96C58277
:1014E20073EF0AF09EA678EF0AF07AEF0AF073EF34
:1014F2000AF07CEF0AF01200066EBFEC0AF006500A
:10150200CBEC0AF00450CBEC0AF00550CBEC0AF01D
:101512005DEC0AF012009E96C58AC58891EF0AF02A
:101522009EA696EF0AF098EF0AF091EF0AF09AEF72
:101532000AF01200016E9EEF0AF0ACA2A3EF0AF0CD
:10154200A5EF0AF09EEF0AF0A7EF0AF001C0ADFF87
:1015520012009E96C580AEEF0AF09EA6B3EF0AF087
:10156200B5EF0AF0AEEF0AF0B7EF0AF01200000E84
:10157200F86E100EF76E0001FBEF08F0AAEC0AF00D
:10158200A00E4BEC0AF012006DEC0AF0A10E4BEC2F
:0E1592000AF01200036E03504BEC0AF0120038
:020000040020DA
:08000000FFFFFFFFFFFFFFFF00
:020000040030CA
:0E000000FF291F3CFFBD81FF0FC00FE00F4026
:00000001FF
