:020000040000FA
:0400000056EF0AF0BD
:101000000030313233343536373839414243444584
:0D10100046006C656374757265203A00003F
:10101E00000E0C6E0ABE18EF08F016EF08F020EF67
:10102E0008F0096C0A1ED8B00A2A010E0C6E20EFC9
:10103E0008F008BE27EF08F025EF08F02FEF08F0B4
:10104E00076C081ED8B0082A010E0C1A2FEF08F0F4
:10105E00000E0E6E000E0D6E09500A10D8B43AEF47
:10106E0008F03CEF08F070EF08F0010E0B6E46EF43
:10107E0008F0D89009360A360B2A46EF08F00AAE69
:10108E004BEF08F04DEF08F040EF08F051EF08F08D
:10109E0051EF08F0D8900D360E360950075C0A5005
:1010AE000858D8A05DEF08F05FEF08F066EF08F083
:1010BE000950075E0A50085A0D8066EF08F0D89066
:1010CE000A3209320B2E51EF08F070EF08F070EF74
:1010DE0008F00C50D8B476EF08F078EF08F07EEFF9
:1010EE0008F00D6C0E1ED8B00E2A7EEF08F00DC063
:1010FE0007F00EC008F084EF08F01200000E066E26
:10110E0002BE8EEF08F08CEF08F096EF08F0016C3F
:10111E00021ED8B0022A010E066E96EF08F004BE2B
:10112E009DEF08F09BEF08F0A3EF08F0036C041E90
:10113E00D8B0042AA3EF08F003500410D8B4AAEFD5
:10114E0008F0ACEF08F0DCEF08F0010E056EB6EF1C
:10115E0008F0D89003360436052AB6EF08F004AE30
:10116E00BBEF08F0BDEF08F0B0EF08F0C1EF08F0EC
:10117E00C1EF08F00350015C04500258D8A0CAEF2A
:10118E0008F0CCEF08F0D2EF08F00350015E0450E7
:10119E00025AD2EF08F0D89004320332052EC1EF76
:1011AE0008F0DCEF08F0DCEF08F00650D8B4E2EF00
:1011BE0008F0E4EF08F0EAEF08F0016C021ED8B078
:1011CE00022AEAEF08F001C001F002C002F0F0EFCF
:1011DE0008F01200000E066E0AEF09F00650010D1F
:1011EE0002C004F003C005F0F3500426F4500522AB
:1011FE0004C0F6FF05C0F7FF0800F55039EC0AF001
:10120E00062A0AEF09F00650010D02C004F003C0D1
:10121E0005F0F3500426F450052204C0F6FF05C075
:10122E00F7FF0800F5500009D8A420EF09F022EFCF
:10123E0009F0F5EF08F024EF09F00D0E39EC0AF085
:10124E000A0E39EC0AF012000F6E0FC007F0086A92
:10125E00000E0A6E640E096E0FEC08F00750300F88
:10126E0039EC0AF0000E046E640E036E0FC001F02E
:10127E00026A85EC08F001C007F002C008F0000E0B
:10128E000A6E0A0E096E0FEC08F00750300F39EC9B
:10129E000AF00FC001F0026A000E046E0A0E036E11
:1012AE0085EC08F00150300F39EC0AF00D0E39ECD8
:1012BE000AF00A0E39EC0AF0120068EF09F068EF36
:1012CE0009F0C7B46DEF09F071EF09F0016A012A58
:1012DE0072EF09F0016AC5501F0B01100009D8A466
:1012EE007BEF09F07DEF09F068EF09F07FEF09F071
:1012FE0012004B0E026E000E016E9BEC09F0B6EC66
:10130E0009F0120E046E120ECCEC09F0156E120ED0
:10131E00026E100E036EF1EC08F015502BEC09F076
:10132E0099EF09F000EF00F0948C948E0F013A9F24
:10133E00000EAC6E000EAB6EAC98AC9CAB9CAB884A
:10134E00AB969D8A9D98AC84B8860C0EAF6E000E3F
:10135E00B06EAC8AAB8E9E9A9D8AF28C12009486E9
:10136E0094880F013A973A99280EC66E00F000F055
:10137E0000F0090EC86E00F000F000F0C78EC78CAA
:10138E00CB9ACB9C9E96A1961200056E5DEC0AF050
:10139E00055069EC0AF0045069EC0AF063EC0AF0AF
:1013AE00E2EC09F0066E2AEC0AF00AEC0AF006509E
:1013BE00E1EF09F01200000E026E64EC09F09E9649
:1013CE00C586EAEF09F0C7A0EFEF09F0F1EF09F0DB
:1013DE00EAEF09F09E96C9CF02F00250F7EF09F03E
:1013EE001200026E64EC09F09E9602C0C9FF00EF77
:1013FE000AF09EA605EF0AF007EF0AF000EF0AF0DA
:10140E0009EF0AF0120064EC09F09E96C58410EF05
:10141E000AF09EA615EF0AF017EF0AF010EF0AF089
:10142E0019EF0AF0120064EC09F09E96C58220EFC7
:10143E000AF09EA625EF0AF027EF0AF020EF0AF039
:10144E0029EF0AF012009E96C58AC5882FEF0AF082
:10145E009EA634EF0AF036EF0AF02FEF0AF038EFBF
:10146E000AF01200016E3CEF0AF0ACA241EF0AF056
:10147E0043EF0AF03CEF0AF045EF0AF001C0ADFF72
:10148E0012009E96C5804CEF0AF09EA651EF0AF010
:10149E0053EF0AF04CEF0AF055EF0AF01200000E6F
:1014AE00F86E100EF76E000180EF09F048EC0AF0AE
:1014BE00A20EF8EC09F012001AEC0AF0A30EF8ECEA
:0E14CE0009F01200036E0350F8EC09F0120052
:020000040020DA
:08000000FFFFFFFFFFFFFFFF00
:020000040030CA
:0E000000FF291F3CFFBD81FF0FC00FE00F4026
:00000001FF
