:020000040000FA
:04000000DFEF7CF0C2
:10F9BE00000EF86E00016CEF7DF0016EACA2FED76A
:10F9CE0001C0ADFF120094808B9494940F013A9570
:10F9DE008B9294921200026E6FCF01F0A49E02C021
:10F9EE006FFFA4BE1200FDD78B928B94040E016E96
:10F9FE003E0EE82EFED7012EFCD78B821200026E31
:10FA0E006FCF01F0A49E02C06FFFA4AEFED76FCFE2
:10FA1E0003F003501200076E8A9807508009076E94
:10FA2E000750F2EC7CF00650F2EC7CF08A88120063
:10FA3E00056E8A9805507F0B056E0550F2EC7CF032
:10FA4E00000E06EC7DF0046E8A880450120093922C
:10FA5E000F013993938439959396399793983999E1
:10FA6E008A886D9E6D8C200E6C6E12008B80949029
:10FA7E00110E016E3A0EE82EFED7012EFCD700D0E5
:10FA8E009480110E016E3A0EE82EFED7012EFCD791
:10FA9E0000D01200948C948E0F013A9F000EAC6E23
:10FAAE00000EAB6EAC98AC9CAB9CAB88AB969D8AB3
:10FABE009D98AC84B8860C0EAF6E000EB06EAC8AFC
:10FACE00AB8E9E9A9D8AF28C12004B0E026E000E29
:10FADE00016E51EC7DF092EC7DF0000E086E010E81
:10FAEE00096EC8EC7DF0000E136E000E126E13BE82
:10FAFE0006D01350F2E10D0E125CD8B0EED7000E08
:10FB0E001224D96E010E1320DA6EDF50E4EC7CF075
:10FB1E00124A132AECD7EAEC7CF02EEC7DF03DEC89
:10FB2E007DF0000E066E010E12EC7DF0800E066E5C
:10FB3E00010E12EC7DF0810E066E010E12EC7DF0C0
:10FB4E00210E086E760EE82EFED7082EFCD700D0BA
:10FB5E0001EC7EF0FBEC7CF00F0E1FEC7DF0066EE0
:10FB6E000D0E12EC7DF0850E066E010E12EC7DF080
:10FB7E00210E086E760EE82EFED7082EFCD700D08A
:10FB8E001200120E1FEC7DF003D0120E1FEC7DF052
:10FB9E000C6E0CA8FAD7120E1FEC7DF003D0120ECD
:10FBAE001FEC7DF00C6E0CACFAD7130E1FEC7DF033
:10FBBE000A6E100E1FEC7DF0066E0D0E12EC7DF02F
:10FBCE00000E0B6E0DD00B50010DF3500824D96EA4
:10FBDE00F4500920DA6E000E1FEC7DF0DF6E0B2A5A
:10FBEE000A500B5CD8A0EFD7FF0E066E120E12EC69
:10FBFE007DF01200000E066E000E12EC7DF0D80E97
:10FC0E00066E060E12EC7DF0990E066E070E12ECC5
:10FC1E007DF0990E066E080E12EC7DF0010E066E4A
:10FC2E00090E12EC7DF0190E066E0A0E12EC7DF026
:10FC3E002B0E066E0B0E12EC7DF0230E066E0C0EC6
:10FC4E0012EC7DF0000E066E0D0E12EC7DF0800EA5
:10FC5E00066E0E0E12EC7DF0000E066E0F0E12ECFE
:10FC6E007DF0000E066E110E12EC7DF0FF0E066E8C
:10FC7E00120E12EC7DF08A0E066E1D0E12EC7DF049
:10FC8E00C70E066E1E0E12EC7DF0FF0E066E1F0ED8
:10FC9E0012EC7DF0000E066E200E12EC7DF0080EBA
:10FCAE00066E210E12EC7DF0800E066E230E12EC07
:10FCBE007DF0000E066E240E12EC7DF0C30E066E65
:10FCCE00310E12EC7DF0270E066E330E12EC7DF027
:10FCDE000A0E066E370E12EC7DF0120E066E390EFF
:10FCEE0012EC7DF01200006D6F6465203D204C6FAC
:10FCFE00526120776974682046534B20726567699C
:10FD0E0073746572732061636365737300636F6EE2
:10FD1E0066696775726174696F6E20726567697363
:10FD2E007465727320636F6E74656E743A0052451B
:10FD3E00475F444554454354494F4E5F54485245DE
:10FD4E0053484F4C44203D203078005245475F4D7C
:10FD5E0041585F5041594C4F41445F4C454E4754BA
:10FD6E0048203D203078004368616E6E656C2041FE
:10FD7E006374697669747920446574656374696F18
:10FD8E006E005245475F505245414D424C455F4CC7
:10FD9E0053425F4C4F5241203D2030780052454730
:10FDAE005F505245414D424C455F4D53425F4C4F63
:10FDBE005241203D203078005245475F4649464F1C
:10FDCE005F52585F424153455F41444452203D20AB
:10FDDE003078005245475F4649464F5F54585F4260
:10FDEE004153455F41444452203D203078005245F6
:10FDFE00475F53594D425F54494D454F55545F4CE3
:10FE0E005342203D203078005245475F44455445CB
:10FE1E0043545F4F5054494D495A45203D20307848
:10FE2E0000636F6E74696E756F75732072656365AE
:10FE3E00697665206D6F6465005245475F49525182
:10FE4E005F464C4147535F4D41534B203D20307828
:10FE5E00006672657175656E63792073796E74686C
:10FE6E0065736973205258006672657175656E63AD
:10FE7E00792073796E7468657369732054580052D3
:10FE8E0045475F4D4F44454D5F434F4E46494731C1
:10FE9E00203D203078005245475F4D4F44454D5F21
:10FEAE00434F4E46494732203D2030780052454759
:10FEBE005F4649464F5F414444525F505452203D85
:10FECE002030780073696E676C65207265636569B2
:10FEDE007665206D6F6465005245475F484F505FF1
:10FEEE00504552494F44203D203078005245475FDF
:10FEFE0053594E435F574F5244203D2030780052A5
:10FF0E0045475F50415F434F4E464947203D2030A5
:10FF1E0078005245475F494E564552545F4951202D
:10FF2E003D203078005245475F4952515F464C4163
:10FF3E004753203D20307800303132333435363758
:10FF4E003839414243444546005245475F46524682
:10FF5E005F4C5342203D203078005245475F465259
:10FF6E00465F4D5342203D203078005245475F4654
:10FF7E0052465F4D4944203D203078005245475F40
:10FF8E004F505F4D4F4445203D203078005245473D
:10FF9E005F50415F52414D50203D203078007374C8
:10FFAE00616E646279206D6F6465005245475F4CE7
:10FFBE004E41203D203078005245475F4F43502040
:10FFCE003D203078006D6F6465203D204C6F52618E
:10FFDE00006D6F6465203D2046534B00736C656564
:10FFEE0070206D6F6465005458206D6F646500203D
:02FFFE00000001
:020000040020DA
:08000000FFFFFFFFFFFFFFFF00
:020000040030CA
:0E000000FF291F3CFFBD81FF0FC00FE00F4026
:00000001FF
