:020000040000FA
:0400000001EF7AF0A2
:10F40200000EF86E0001D5EF7CF0016EACA2FED7C3
:10F4120001C0ADFF120094808B9494940F013A9531
:10F422008B9294921200026E6FCF01F0A49E02C0E2
:10F432006FFFA4BE1200FDD78B928B94040E016E57
:10F442003E0EE82EFED7012EFCD78B821200026EF2
:10F452006FCF01F0A49E02C06FFFA4AEFED76FCFA4
:10F4620003F003501200076E8A9807508009076E56
:10F47200075014EC7AF0065014EC7AF08A881200E5
:10F48200056E8A9805507F0B056E055014EC7AF0D4
:10F49200000E28EC7AF0046E8A88045012009392CF
:10F4A2000F013993938439959396399793983999A3
:10F4B2008A886D9E6D8C200E6C6E12008B809490EB
:10F4C200110E016E3A0EE82EFED7012EFCD700D0A7
:10F4D2009480110E016E3A0EE82EFED7012EFCD753
:10F4E20000D01200948C948E0F013A9F000EAC6EE5
:10F4F200000EAB6EAC98AC9CAB9CAB88AB969D8A75
:10F502009D98AC84B8860C0EAF6E000EB06EAC8ABD
:10F51200AB8E9E9A9D8AF28C1200000E066E13D05C
:10F522000650010D02C004F003C005F0F35004269A
:10F53200F450052204C0F6FF05C0F7FF0800F5509D
:10F5420006EC7AF0062A0650010D02C004F003C050
:10F5520005F0F3500426F450052204C0F6FF05C05E
:10F56200F7FF0800F5500009D8B41200D9D7000EF1
:10F57200066E13D00650010D02C004F003C005F060
:10F58200F3500426F450052204C0F6FF05C0F7FF2D
:10F592000800F55006EC7AF0062A0650010D02C06A
:10F5A20004F003C005F0F3500426F450052204C011
:10F5B200F6FF05C0F7FF0800F5500009D8A4DAD716
:10F5C2000D0E06EC7AF00A0E06EC7AF01200146EBA
:10F5D2002C0E126EFF0E136E14C007F0086A000E96
:10F5E2000A6E100E096E90EC7BF012C00FF013C081
:10F5F20010F007500F26085010220FC0F6FF10C05F
:10F60200F7FF0800F55006EC7AF014C00FF00F0E69
:10F612000F160F501224106E000E1320116E10C020
:10F62200F6FF11C0F7FF0800F55006EC7AF00D0E58
:10F6320006EC7AF00A0E06EC7AF01200000E066E64
:10F6420002AE06D0016C021ED8B0022A010E066E6E
:10F6520004AE04D0036C041ED8B0042A0350041074
:10F66200D8B418D0010E056E04D0D89003360436F3
:10F67200052A04AEFAD70350015C04500258D8A000
:10F6820004D00350015E0450025AD890043203326F
:10F69200052EF1D70650D8B404D0016C021ED8B0A2
:10F6A200022A01C001F002C002F012000F6E0FC068
:10F6B20007F0086A000E0A6E640E096E90EC7BF089
:10F6C2000750300F06EC7AF0000E046E640E036EE3
:10F6D2000FC001F0026A1FEC7BF001C007F002C00C
:10F6E20008F0000E0A6E0A0E096E90EC7BF00750CD
:10F6F200300F06EC7AF00FC001F0026A000E046EC1
:10F702000A0E036E1FEC7BF00150300F06EC7AF00C
:10F712000D0E06EC7AF00A0E06EC7AF01200000EDC
:10F722000C6E0AAE06D0096C0A1ED8B00A2A010E67
:10F732000C6E08AE06D0076C081ED8B0082A010E5F
:10F742000C1A000E0E6E000E0D6E09500A10D8B47F
:10F752001CD0010E0B6E04D0D89009360A360B2A43
:10F762000AAEFAD7D8900D360E360950075C0A5009
:10F772000858D8A005D00950075E0A50085A0D80D3
:10F78200D8900A3209320B2EEDD70C50D8B404D0DF
:10F792000D6C0E1ED8B00E2A0DC007F00EC008F078
:10F7A2001200000E066E000E34EC7AF0D80E066ED1
:10F7B200060E34EC7AF0990E066E070E34EC7AF0EF
:10F7C200990E066E080E34EC7AF0010E066E090EE2
:10F7D20034EC7AF0190E066E0A0E34EC7AF02B0E27
:10F7E200066E0B0E34EC7AF0230E066E0C0E34EC21
:10F7F2007AF0000E066E0D0E34EC7AF0800E066E74
:10F802000E0E34EC7AF0000E066E0F0E34EC7AF027
:10F81200000E066E110E34EC7AF0FF0E066E120E1A
:10F8220034EC7AF0880E066E1D0E34EC7AF0C70EB8
:10F83200066E1E0E34EC7AF0FF0E066E1F0E34ECCE
:10F842007AF0000E066E200E34EC7AF0080E066E88
:10F85200210E34EC7AF0800E066E230E34EC7AF030
:10F86200000E066E240E34EC7AF0C30E066E310ED4
:10F8720034EC7AF0270E066E330E34EC7AF00A0E70
:10F88200066E370E34EC7AF0120E066E390E34EC38
:10F892007AF01200010E41EC7AF0186E700E026ED0
:10F8A200FF0E036E8EEC7AF01850E8EC7AF01850E6
:10F8B200800B176E1750D8B414D01850400B176E27
:10F8C2001750D8A407D0C80E026EFF0E036EB8EC14
:10F8D2007AF00DD0E30E026EFB0E036EB8EC7AF0F6
:10F8E20006D0E00E026EFF0E036EB8EC7AF01850EE
:10F8F200070B176E38D0EB0E026EFF0E036EB8ECDC
:10F902007AF01200A10E026EFF0E036EB8EC7AF0CE
:10F9120012000C0E026EFE0E036EB8EC7AF01200AC
:10F92200F60E026EFF0E036EB8EC7AF01200F50EC0
:10F93200026EFD0E036EB8EC7AF01200AD0E026E8E
:10F94200FD0E036EB8EC7AF01200930E026EFE0EFC
:10F95200036EB8EC7AF01200C00E026EFC0E036E5B
:10F96200B8EC7AF012001750156E166A1650000A9B
:10F97200D8A412001550000AD8B4BDD7010AD8B4D1
:10F98200C1D7030AD8B4C5D7010AD8B4C9D7070A60
:10F99200D8B4CDD7010AD8B4D1D7030AD8B4D5D7B1
:10F9A200010AD8A41200D8D74B0E026E000E016EC7
:10F9B20073EC7AF00CEC7AF050EC7AF05FEC7AF0BF
:10F9C200940E026EFD0E036EB8EC7AF0000E066E17
:10F9D200010E34EC7AF0800E066E010E34EC7AF0F1
:10F9E200810E066E010E34EC7AF0210E1E6E760E3A
:10F9F200E82EFED71E2EFCD700D04BEC7CF0F40E86
:10FA0200026EFE0E036EB8EC7AF0D2EC7BF01DECC7
:10FA12007AF00F0E41EC7AF0066E0D0E34EC7AF0AD
:10FA2200480E026EFC0E036EB8EC7AF04A0E026EBD
:10FA3200FC0E036EB8EC7AF0850E066E010E34EC05
:10FA42007AF0210E1E6E760EE82EFED71E2EFCD701
:10FA520000D04BEC7CF0120E41EC7AF003D0120E87
:10FA620041EC7AF0216E21A8FAD7480E026EFC0E04
:10FA7200036EB8EC7AF0680E026EFE0E036EB8ECFE
:10FA82007AF0120E41EC7AF0216E070E026EFF0E32
:10FA9200036E8EEC7AF02150E8EC7AF0120E41EC13
:10FAA2007AF003D0120E41EC7AF0216E21ACFAD733
:10FAB200480E026EFC0E036EB8EC7AF0610E026E16
:10FAC200FD0E036EB8EC7AF0120E41EC7AF0216E64
:10FAD200070E026EFF0E036E8EEC7AF02150E8ECF8
:10FAE2007AF021AA0CD0480E026EFC0E036EB8EC1E
:10FAF2007AF01A0E026EFF0E036EB8EC7AF0480E20
:10FB0200026EFC0E036EB8EC7AF0920E026EFF0EDD
:10FB1200036EB8EC7AF0130E41EC7AF01F6E100E01
:10FB220041EC7AF0066E0D0E34EC7AF0000E206E87
:10FB320008D0000E41EC7AF0216E215006EC7AF0EA
:10FB4200202A1F50205CD8A0F4D7480E026EFC0E6B
:10FB5200036EB8EC7AF0480E026EFC0E036EB8EC3F
:10FB62007AF0100E41EC7AF0216E690E026EFC0EF4
:10FB7200036E8EEC7AF02150E8EC7AF0130E41EC31
:10FB82007AF0216E7E0E026EFE0E036E8EEC7AF01D
:10FB92002150E8EC7AF01A0E41EC7AF0216E2A0E2E
:10FBA200026EFC0E036E8EEC7AF0215057EC7BF065
:10FBB200480E026EFC0E036EB8EC7AF0D40E026EA2
:10FBC200FF0E036EB8EC7AF0FF0E066E120E34ECE6
:10FBD2007AF0DD0E026EFD0E036EB8EC7AF03BD7C2
:10FBE200006D6F6465203D204C6F5261207769740F
:10FBF200682046534B20726567697374657273207F
:10FC020061636365737300636F6E666967757261C2
:10FC120074696F6E207265676973746572732063AD
:10FC22006F6E74656E743A005245475F504B545F75
:10FC3200525353495F56414C5545202864656369C8
:10FC42006D616C29203D2000736574206D6F6465C1
:10FC520020746F204C6F526120636F6E74696E75F1
:10FC62006F7573205258005245475F4649464F5FB1
:10FC720052585F43555252454E545F4144445220BC
:10FC82003D203078005245475F444554454354492E
:10FC92004F4E5F5448524553484F4C44203D20300C
:10FCA20078005245475F4D41585F5041594C4F4192
:10FCB200445F4C454E475448203D2030780043680D
:10FCC200616E6E656C204163746976697479204453
:10FCD2006574656374696F6E005245475F505245A3
:10FCE200414D424C455F4C53425F4C4F5241203D87
:10FCF200203078005245475F505245414D424C45B5
:10FD02005F4D53425F4C4F5241203D2030780052AC
:10FD120045475F4649464F5F52585F424153455FF0
:10FD220041444452203D203078005245475F4649C5
:10FD3200464F5F54585F424153455F41444452200D
:10FD42003D203078005245475F53594D425F544938
:10FD52004D454F55545F4C5342203D203078007042
:10FD620061636B657420726563657074696F6E2080
:10FD7200636F6D706C657465005245475F4445540E
:10FD82004543545F4F5054494D495A45203D203018
:10FD92007800736574206D6F646520746F204C6FFA
:10FDA2005261207374616E64627900636F6E74696C
:10FDB2006E756F75732072656365697665206D6F08
:10FDC2006465005245475F4952515F464C41475373
:10FDD2005F4D41534B203D203078002D2D2D2D2D90
:10FDE2002D2D2D2D2D2D2D2D2D2D2D2D2D2D2D2D41
:10FDF2002D2D006672657175656E63792073796E5B
:10FE0200746865736973205258006672657175650E
:10FE12006E63792073796E746865736973205458C0
:10FE2200005245475F4D4F44454D5F434F4E464953
:10FE32004731203D203078005245475F4D4F4445C1
:10FE42004D5F434F4E46494732203D2030780052A5
:10FE520045475F4649464F5F414444525F505452C2
:10FE6200203D2030780076616C69642068656164A9
:10FE72006572207265636569766564005245475F05
:10FE820052585F4E425F4259544553203D203078CC
:10FE92000073696E676C65207265636569766520BB
:10FEA2006D6F6465005245475F484F505F50455241
:10FEB200494F44203D203078005245475F53594E08
:10FEC200435F574F5244203D203078005245475FF0
:10FED20050415F434F4E464947203D203078005203
:10FEE20045475F494E564552545F4951203D2030A7
:10FEF2007800696E697469616C697A65206D6F64F6
:10FF0200756C6520005245475F4952515F464C412E
:10FF12004753203D203078007061796C6F61642016
:10FF2200435243206572726F72003031323334357E
:10FF320036373839414243444546005245475F46C9
:10FF420052465F4C5342203D203078005245475F75
:10FF52004652465F4D5342203D203078005245477D
:10FF62005F4652465F4D4944203D2030780052455D
:10FF7200475F4F505F4D4F4445203D20307800523F
:10FF820045475F50415F52414D50203D203078003F
:10FF9200726563656976656420646174613A0073B1
:10FFA20074616E646279206D6F6465005245475FCB
:10FFB2004C4E41203D203078005245475F4F435020
:10FFC200203D203078006D6F6465203D204C6F52DB
:10FFD2006100636C65617220666C616773006D6FAE
:10FFE2006465203D2046534B00736C656570206D3F
:0DFFF2006F6465005458206D6F6465000059
:020000040020DA
:08000000FFFFFFFFFFFFFFFF00
:020000040030CA
:0E000000FF291F3CFFBD81FF0FC00FE00F4026
:00000001FF
