:020000040000FA
:040000002DEF0FF0E1
:101000000030313233343536373839414243444584
:10101000460044656D6172726167652021004C4530
:101020004354555245203A20004C656374757265EF
:1010300000204C534200204D534200494E49540079
:10104000206C757800001250800B1B6E1250122419
:10105000216E11AE2EEF08F030EF08F033EF08F0FC
:10106000218033EF08F02150D8B439EF08F03BEF7E
:1010700008F050EF08F02128D8A441EF08F043EF22
:1010800008F04DEF08F0000E0F6E000E106E000E0F
:10109000116E000E126E4DEF08F0118E5AEF08F02F
:1010A000000E0F6E000E106E000E116E000E126E0E
:1010B0005AEF08F01650800B1B1A16501624206E9B
:1010C00015AE65EF08F067EF08F06AEF08F02080D2
:1010D0006AEF08F02050D8B470EF08F072EF08F013
:1010E00087EF08F02028D8A478EF08F07AEF08F00E
:1010F00084EF08F0000E136E000E146E000E156ED5
:10110000000E166E84EF08F0158E8FEF08F0000EBB
:10111000136E000E146E000E156E000E166E20502B
:10112000D8B495EF08F097EF08F0A1EF08F0215040
:10113000D8A49DEF08F09FEF08F0ADEF08F0A1EF05
:1011400008F0000E0F6E000E106E000E116E000EF5
:10115000126E59EF0AF059EF0AF015500F02F3CF53
:1011600026F0F4CF27F026501C6E1D6A1E6A1F6AF7
:101170002750226E236A246A256A14501002F3CF86
:1011800026F0F4CF27F026501C26000E1D221E222A
:101190001F2227502226000E23222422252213500C
:1011A0001102F3CF26F0F4CF27F026501C26000EB4
:1011B0001D221E221F2227502226000E2322242217
:1011C00025221EC01FF01DC01EF01CC01DF01C6A91
:1011D00013501002F3CF26F0F4CF27F026501C2630
:1011E00027501D22000E1E22000E1F2214500F0237
:1011F000F3CF26F0F4CF27F026501C2627501D22CF
:10120000000E1E22000E1F221EC01FF01DC01EF069
:101210001CC01DF01C6A13500F02F3CF26F0F4CF50
:1012200027F026501C2627501D22000E1E22000EDD
:101230001F2215501002F3CF26F0F4CF27F02650CE
:10124000222627502322000E2422000E252214508D
:101250001102F3CF26F0F4CF27F026502226275094
:101260002322000E2422000E252215501102F3CF56
:1012700026F0F4CF27F02650176E2750186E196A03
:101280001A6A19C01AF018C019F017C018F0176AB6
:101290001750222618502322195024221A50252292
:1012A0001CC017F01DC018F01EC019F01FC01AF0A6
:1012B000190E60EF09F0D8901A321932183217322D
:1012C000E82E5BEF09F01750222618502322195000
:1012D00024221A5025221EC01FF01DC01EF01CC063
:1012E0001DF01C6A205021C017F0186A1726000E46
:1012F0001822820E1724266EFF0E1820276E98EFF4
:1013000009F0D89022362336243625361FAE8BEFCF
:1013100009F08DEF09F08EEF09F02280D8901C368D
:101320001D361E361F362606D8A0270698EF09F070
:1013300024AE9DEF09F09FEF09F081EF09F0A1EFD6
:1013400009F0000E206E1FAEA8EF09F0AAEF09F019
:10135000D2EF09F0FF0E1C14176EFF0E1D14186E4D
:10136000FF0E1E14196E7F0E1F141A6E17501810E0
:1013700019101A10D8B4BFEF09F0C1EF09F0C5EF8A
:1013800009F0010E206ED2EF09F022A0CAEF09F099
:10139000CCEF09F0D2EF09F0010E206ED2EF09F088
:1013A000D2EF09F02050D8B4D8EF09F0DAEF09F005
:1013B00002EF0AF0010E2226000E2322242225220B
:1013C00025A0E5EF09F0E7EF09F002EF0AF022C0EF
:1013D00017F023C018F024C019F025C01AF01A34F1
:1013E0001A3219321832173217C022F018C023F0FF
:1013F00019C024F01AC025F0264A272A02EF0AF065
:1014000002EF0AF027BE0DEF0AF0275008E1262868
:10141000D8A00DEF0AF00FEF0AF019EF0AF0000E56
:10142000226E000E236E800E246E7F0E256E4DEF11
:101430000AF027BE26EF0AF0275006E12604D8B0AE
:1014400024EF0AF026EF0AF032EF0AF0000E226EC7
:10145000000E236E000E246E000E256E000E1B6E15
:101460004DEF0AF026C021F0FF0E2216FF0E2316C4
:101470007F0E2416000E251621A041EF0AF043EF3F
:101480000AF046EF0AF0248E46EF0AF0D890213099
:10149000256E4DEF0AF04DEF0AF01B50251222C0C9
:1014A0000FF023C010F024C011F025C012F059EF46
:1014B0000AF01200096E0950D8B461EF0AF063EF28
:1014C0000AF085EF0AF004BE6AEF0AF068EF0AF04E
:1014D00085EF0AF001C005F002C006F003C007F076
:1014E00004C008F0051E061E071E081E052A000E71
:1014F00006220722082205C00BF006C00CF007C028
:101500000DF008C00EF08FEF0AF001C00BF002C022
:101510000CF003C00DF004C00EF08FEF0AF0015084
:10152000021003100410D8A498EF0AF09AEF0AF002
:10153000A6EF0AF0000E016E000E026E000E036EA2
:10154000000E046E47EF0BF047EF0BF0960E0A6E9D
:10155000B2EF0AF00A2AD8900E320D320C320B325A
:10156000B2EF0AF0000E0B14056E000E0C14066E9E
:10157000000E0D14076EFE0E0E14086E05500610B8
:1015800007100810D8A4C7EF0AF0C9EF0AF0AAEFB5
:101590000AF0D9EF0AF0D9EF0AF00A2A010E0B2659
:1015A000000E0C220D220E22D8900E320D320C327B
:1015B0000B32000E0B14056E000E0C14066E000E9E
:1015C0000D14076EFF0E0E14086E0550061007105E
:1015D0000810D8A4EEEF0AF0F0EF0AF0CDEF0AF011
:1015E000FCEF0AF0FCEF0AF00A06D8900B360C3636
:1015F0000D360E36FCEF0AF00DBE01EF0BF003EFD7
:101600000BF00DEF0BF0020E0A6009EF0BF00BEF81
:101610000BF0F4EF0AF00DEF0BF00AB012EF0BF045
:1016200014EF0BF017EF0BF00D9E17EF0BF0D890A7
:101630000A320AC005F0066A076A086A05C008F09F
:10164000076A066A056A05500B1206500C1207500D
:101650000D1208500E120950D8B431EF0BF033EFD1
:101660000BF03DEF0BF004BE3AEF0BF038EF0BF050
:101670003DEF0BF00E8E3DEF0BF00BC001F00CC0F8
:1016800002F00DC003F00EC004F047EF0BF01200A3
:101690002A342B34316E3150D8A451EF0BF053EF74
:1016A0000BF05FEF0BF0000E286E000E296E000E9F
:1016B0002A6E000E2B6EF0EF0BF0F0EF0BF028C04F
:1016C0002CF029C02DF02AC02EF02BC02FF0200EB8
:1016D0006FEF0BF0D8902F322E322D322C32E82EB5
:1016E0006AEF0BF02C50306E2A8EFF0E2816FF0E7C
:1016F0002916FF0E2A16000E2B16960E315E31BEED
:1017000086EF0BF084EF0BF0AAEF0BF03150800A5C
:10171000970FD8B08EEF0BF090EF0BF09EEF0BF021
:10172000000E286E000E296E000E2A6E000E2B6E23
:10173000F0EF0BF0F0EF0BF09EEF0BF0D8902B32A8
:101740002A3229322832313E9EEF0BF0D4EF0BF0D3
:10175000D4EF0BF01F0E3164B0EF0BF0B2EF0BF0D3
:10176000C8EF0BF0000E286E000E296E000E2A6ED8
:10177000000E2B6EF0EF0BF0F0EF0BF0C8EF0BF05C
:10178000D890283629362A362B363106C8EF0BF08A
:101790003150D8A4CEEF0BF0D0EF0BF0C0EF0BF030
:1017A000D4EF0BF0D4EF0BF03050D8B4DAEF0BF0ED
:1017B000DCEF0BF0E6EF0BF02B1E2A1E291E286C27
:1017C000000E29222A222B22E6EF0BF028C028F057
:1017D00029C029F02AC02AF02BC02BF0F0EF0BF023
:1017E000120096EC0EF0110E396E3A0EE82EFED76E
:1017F000392EFCD700D04B0E026E000E016E65EC48
:101800000EF0120E026E100E036E88EC0DF009EF52
:101810000CF0000E3B6E000E3C6E000E3E6E000E95
:101820003D6E1FEC0FF03B0E026E100E036E88EC47
:101830000DF0000E036E000E046E000EACEC0EF008
:10184000290E026E100E036E88EC0DF0040E4DECA6
:101850000DF007C03DF008C03EF03DC032F03EC084
:1018600033F0FBEC0DF032C03DF033C03EF03E50A3
:101870003B6E3DC03CF01E0E026E100E036E88ECF7
:101880000DF0360E026E100E036E88EC0DF03B501C
:10189000C2EC0DF0310E026E100E036E88EC0DF0EE
:1018A0003C50C2EC0DF0400E026E100E036E88EC40
:1018B0000DF0020E3A6E860E396E990EE82EFED7A6
:1018C000392EFCD73A2EFAD700F009EF0CF009EFC9
:1018D0000CF000EF00F0000E0C6E0ABE74EF0CF07E
:1018E00072EF0CF07CEF0CF0096C0A1ED8B00A2ADB
:1018F000010E0C6E7CEF0CF008BE83EF0CF081EF54
:101900000CF08BEF0CF0076C081ED8B0082A010E03
:101910000C1A8BEF0CF0000E0E6E000E0D6E0950BF
:101920000A10D8B496EF0CF098EF0CF0CCEF0CF056
:10193000010E0B6EA2EF0CF0D89009360A360B2A76
:10194000A2EF0CF00AAEA7EF0CF0A9EF0CF09CEFA1
:101950000CF0ADEF0CF0ADEF0CF0D8900D360E366C
:101960000950075C0A500858D8A0B9EF0CF0BBEF3B
:101970000CF0C2EF0CF00950075E0A50085A0D80B7
:10198000C2EF0CF0D8900A3209320B2EADEF0CF0FA
:10199000CCEF0CF0CCEF0CF00C50D8B4D2EF0CF034
:1019A000D4EF0CF0DAEF0CF00D6C0E1ED8B00E2A4E
:1019B000DAEF0CF00DC007F00EC008F0E0EF0CF00D
:1019C0001200000E066E02BEEAEF0CF0E8EF0CF01B
:1019D000F2EF0CF0016C021ED8B0022A010E066E66
:1019E000F2EF0CF004BEF9EF0CF0F7EF0CF0FFEFA4
:1019F0000CF0036C041ED8B0042AFFEF0CF0035067
:101A00000410D8B406EF0DF008EF0DF038EF0DF02C
:101A1000010E056E12EF0DF0D89003360436052A3C
:101A200012EF0DF004AE17EF0DF019EF0DF00CEF03
:101A30000DF01DEF0DF01DEF0DF00350015C045093
:101A40000258D8A026EF0DF028EF0DF02EEF0DF084
:101A50000350015E0450025A2EEF0DF0D89004326C
:101A60000332052E1DEF0DF038EF0DF038EF0DF0BD
:101A70000650D8B43EEF0DF040EF0DF046EF0DF0FC
:101A8000016C021ED8B0022A46EF0DF001C001F031
:101A900002C002F04CEF0DF012000A6E1FEC0FF0C6
:101AA000200EC0EC0EF00A50C0EC0EF0D2EC0EF09E
:101AB000210EC0EC0EF080EC0EF0096E0950036EA2
:101AC000046A27EC0EF003500B6E01EC0FF080EC73
:101AD0000EF0096E0950036E046A27EC0EF00350F5
:101AE0000C6EF2EC0EF0E2EC0EF00CC00DF00E6A93
:101AF0000D500E6E0D6A0B500D240D6E000E0E2053
:101B00000E6E0DC007F00EC008F087EF0DF012004A
:101B1000000E066EA1EF0DF00650010D02C004F09C
:101B200003C005F0F3500426F450052204C0F6FF6C
:101B300005C0F7FF0800F55010EC0FF0062AA1EFE2
:101B40000DF00650010D02C004F003C005F0F35083
:101B50000426F450052204C0F6FF05C0F7FF080074
:101B6000F5500009D8A4B7EF0DF0B9EF0DF08CEFE8
:101B70000DF0BBEF0DF00D0E10EC0FF00A0E10EC97
:101B80000FF012000F6E0FC007F0086A000E0A6E09
:101B9000640E096E6BEC0CF00750300F10EC0FF078
:101BA000000E046E640E036E0FC001F0026AE1ECD9
:101BB0000CF001C007F002C008F0000E0A6E0A0E19
:101BC000096E6BEC0CF00750300F10EC0FF00FC0EB
:101BD00001F0026A000E046E0A0E036EE1EC0CF0D6
:101BE0000150300F10EC0FF00D0E10EC0FF00A0E3C
:101BF00010EC0FF01200FA0E136EED0E146E6B0E59
:101C0000156E3D0E166E32C001F033C002F0036A4D
:101C1000046A000E5AEC0AF001C00FF002C010F086
:101C200003C011F004C012F023EC08F00FC028F03C
:101C300010C029F011C02AF012C02BF048EC0BF0B4
:101C400028C032F029C033F026EF0EF0120004BE97
:101C500034EF0EF0045006E10304D8B032EF0EF07A
:101C600034EF0EF042EF0EF003C005F004C006F0B2
:101C7000051E061E054A062A05C003F006C004F02C
:101C800048EF0EF003C003F004C004F048EF0EF07C
:101C900012004DEF0EF04DEF0EF0C7B452EF0EF004
:101CA00056EF0EF0016A012A57EF0EF0016AC55097
:101CB0001F0B01100009D8A460EF0EF062EF0EF0C8
:101CC0004DEF0EF064EF0EF01200948C948E0F0125
:101CD0003A9F000EAC6E000EAB6EAC98AC9CAB9C09
:101CE000AB88AB969D8A9D98AC84B8860C0EAF6E7F
:101CF000000EB06EAC8AAB8E9E9A9D8AF28C12005A
:101D0000000E026E49EC0EF09E96C58688EF0EF02E
:101D1000C7A08DEF0EF08FEF0EF088EF0EF09E96BD
:101D2000C9CF02F0025095EF0EF01200948694880D
:101D30000F013A973A99280EC66E00F000F000F0B5
:101D4000090EC86E00F000F000F0C78EC78CCB9A69
:101D5000CB9C9E96A1961200056E200EC0EC0EF054
:101D60000550C0EC0EF00350C0EC0EF00450C0EC77
:101D70000EF0E2EC0EF0D00EE82EFED700F01200CE
:101D8000026E49EC0EF09E9602C0C9FFC8EF0EF03D
:101D90009EA6CDEF0EF0CFEF0EF0C8EF0EF0D1EF14
:101DA0000EF0120049EC0EF09E96C582D8EF0EF0B0
:101DB0009EA6DDEF0EF0DFEF0EF0D8EF0EF0E1EFB4
:101DC0000EF0120049EC0EF09E96C584E8EF0EF07E
:101DD0009EA6EDEF0EF0EFEF0EF0E8EF0EF0F1EF54
:101DE0000EF012009E96C58AC588F7EF0EF09EA6EB
:101DF000FCEF0EF0FEEF0EF0F7EF0EF000EF0FF03D
:101E000012009E96C59AC58806EF0FF09EA60BEFAE
:101E10000FF00DEF0FF006EF0FF00FEF0FF01200C5
:101E2000016E13EF0FF0ACA218EF0FF01AEF0FF0E6
:101E300013EF0FF01CEF0FF001C0ADFF12009E96E4
:101E4000C58023EF0FF09EA628EF0FF02AEF0FF0CA
:101E500023EF0FF02CEF0FF01200000EF86E100EB3
:081E6000F76E0001F1EF0BF039
:020000040020DA
:08000000FFFFFFFFFFFFFFFF00
:020000040030CA
:0E000000FF291F3CFFBD81FF0FC00FE00F4026
:00000001FF
