:020000040000FA
:040000000AEF0AF009
:101000000030313233343536373839414243444584
:0310100046000097
:10101400016E9F0E016411EF08F013EF08F018EF52
:1010240008F0640E88EF08F088EF08F0960E01646B
:101034001EEF08F020EF08F02DEF08F09F0E01607E
:1010440026EF08F028EF08F02DEF08F0500E88EF97
:1010540008F088EF08F0920E016433EF08F035EFE2
:1010640008F042EF08F0970E01603BEF08F03DEF07
:1010740008F042EF08F03C0E88EF08F088EF08F023
:101084008E0E016448EF08F04AEF08F057EF08F0BD
:10109400930E016050EF08F052EF08F057EF08F09C
:1010A400280E88EF08F088EF08F08A0E01645DEFDF
:1010B40008F05FEF08F06CEF08F08F0E016065EF49
:1010C40008F067EF08F06CEF08F0140E88EF08F0F2
:1010D40088EF08F0860E016472EF08F074EF08F0F0
:1010E40083EF08F08B0E01607AEF08F07CEF08F0D4
:1010F40083EF08F00A0E88EF08F088EF08F088EF15
:1011040008F0000E88EF08F088EF08F01200000ED7
:101114000C6E0ABE92EF08F090EF08F09AEF08F018
:10112400096C0A1ED8B00A2A010E0C6E9AEF08F058
:1011340008BEA1EF08F09FEF08F0A9EF08F0076CD4
:10114400081ED8B0082A010E0C1AA9EF08F0000EE8
:101154000E6E000E0D6E09500A10D8B4B4EF08F0EC
:10116400B6EF08F0EAEF08F0010E0B6EC0EF08F0DE
:10117400D89009360A360B2AC0EF08F00AAEC5EF3C
:1011840008F0C7EF08F0BAEF08F0CBEF08F0CBEFA8
:1011940008F0D8900D360E360950075C0A500858EE
:1011A400D8A0D7EF08F0D9EF08F0E0EF08F0095025
:1011B400075E0A50085A0D80E0EF08F0D8900A3212
:1011C40009320B2ECBEF08F0EAEF08F0EAEF08F053
:1011D4000C50D8B4F0EF08F0F2EF08F0F8EF08F094
:1011E4000D6C0E1ED8B00E2AF8EF08F00DC007F0F3
:1011F4000EC008F0FEEF08F01200000E066E02BEEC
:1012040008EF09F006EF09F010EF09F0016C021E77
:10121400D8B0022A010E066E10EF09F004BE17EFD3
:1012240009F015EF09F01DEF09F0036C041ED8B0A6
:10123400042A1DEF09F003500410D8B424EF09F078
:1012440026EF09F056EF09F0010E056E30EF09F0B4
:10125400D89003360436052A30EF09F004AE35EF92
:1012640009F037EF09F02AEF09F03BEF09F03BEF03
:1012740009F00350015C04500258D8A044EF09F06F
:1012840046EF09F04CEF09F00350015E0450025A96
:101294004CEF09F0D89004320332052E3BEF09F0ED
:1012A40056EF09F056EF09F00650D8B45CEF09F098
:1012B4005EEF09F064EF09F0016C021ED8B0022A57
:1012C40064EF09F001C001F002C002F06AEF09F016
:1012D40012000F6E0FC007F0086A000E0A6E640E4B
:1012E400096E89EC08F00750300FFBEC09F0000E92
:1012F400046E640E036E0FC001F0026AFFEC08F086
:1013040001C007F002C008F0000E0A6E0A0E096E52
:1013140089EC08F00750300FFBEC09F00FC001F026
:10132400026A000E046E0A0E036EFFEC08F0015010
:10133400300FFBEC09F00D0EFBEC09F00A0EFBEC90
:1013440009F012004B0E026E000E016EE0EC09F083
:10135400ACEF09F0C3EC09F00AEC08F06BEC09F00F
:10136400070E166E580E156E5A0EE82EFED7152E61
:10137400FCD7162EFAD7ACEF09F0ACEF09F000EF6A
:1013840000F092820F013883050EC26E000EC16E0A
:101394003E0EC06E030EE82EFED700F0C282D3EFDD
:1013A40009F0C2B2D8EF09F0DAEF09F0D3EF09F08F
:1013B400DCEF09F0C450DFEF09F01200948C948E36
:1013C4000F013A9F000EAC6E000EAB6EAC98AC9C55
:1013D400AB9CAB88AB969D8A9D98AC84B8860C0E6A
:1013E400AF6E000EB06EAC8AAB8E9E9A9D8AF28C64
:1013F4001200016EFEEF09F0ACA203EF0AF005EF54
:101404000AF0FEEF09F007EF0AF001C0ADFF120089
:0E141400000EF86E100EF76E0001A4EF09F046
:020000040020DA
:08000000FFFFFFFFFFFFFFFF00
:020000040030CA
:0E000000FF291F3CFFBD81FF0FC00FE00F4026
:00000001FF
