:020000040000FA
:04000000D3EF7DF0CD
:10FB960094808B9494940F013A958B9294921200D0
:10FBA60000EE46F0150EEE6AE806FDE10001B1EF43
:10FBB6007EF08B928B94040E016E3E0EE82EFED7DD
:10FBC600012EFCD78B841200076E8A980750800995
:10FBD600076E075014EC7EF0065014EC7EF08A880F
:10FBE600120093920F01399393843995939639971E
:10FBF600939839998A886D9E6D8C200E6C6E1200D2
:10FC0600056E8A9805507F0B056E055014EC7EF044
:10FC1600000E26EC7EF0046E8A88045013EF7EF008
:10FC26001200026E6FCF01F0A49E02C06FFF1CEFA0
:10FC36007EF0A4AE21EF7EF023EF7EF01CEF7EF087
:10FC460025EF7EF01200026E6FCF01F0A49E02C077
:10FC56006FFF2EEF7EF0A4AE33EF7EF035EF7EF031
:10FC66002EEF7EF06FCF03F0035012008B8094903E
:10FC7600110E016E3A0EE82EFED7012EFCD700D0EB
:10FC86009480110E016E3A0EE82EFED7012EFCD797
:10FC960000D01200420E0B6E260E0C6E000E0D6E7C
:10FCA600010E0E6E010E0F6EC00E106E000E116E5E
:10FCB600010E126E000E136E010E146E20EE0BF086
:10FCC60000EE01F0090EDBCFEBFFE806FCE26CEF7D
:10FCD6007EF01200CBEC7DF0F4EC7DF039EC7EF09A
:10FCE600DCEC7DF0000E066E010EE7EC7DF0800E7A
:10FCF600066E010EE7EC7DF0810E066E010EE7EC56
:10FD06007DF0210E096E760EE82EFED7092EFCD761
:10FD160000D084EC7FF01200420E0C6E260E0D6EA3
:10FD2600000E0E6E010E0F6E020E106E03C011F065
:10FD36000250126E01C013F00550146E04C015F087
:10FD460006C016F020EE0CF000EE01F00A0EDBCF36
:10FD5600EBFFE806FCE2B0EF7EF012004DEC7EF021
:10FD660020EE31F0090EEBCFDBFFE806FCE220EED9
:10FD760051F010EE27F0090EDBCFE3FFE806FCE2B8
:10FD860031C027F032C028F033C029F034C02AF041
:10FD960035C02BF036C02CF037C02DF038C02EF011
:10FDA60039C02FF03AC030F0010E026E010E016E1E
:10FDB600FF0E036EFE0E056EFE0E046E110E066E2F
:10FDC6008FEC7EF020EE3BF00A0EEBCFDBFFE80671
:10FDD600FCE220EE46F010EE1CF00A0EDBCFE3FF4D
:10FDE600E806FCE23BC01CF03CC01DF03DC01EF026
:10FDF6003EC01FF03FC020F040C021F041C022F0BD
:10FE060042C023F043C024F044C025F045C026F08C
:10FE16006DEC7EF0270E086E000E096E0A0E0A6E55
:10FE26001AEC7FF0030018EF7FF000EF00F0000EF1
:10FE36000D6E33EF7FF00D50010DF3500824D96E8F
:10FE4600F4500920DA6E0D50010D000EF324E16E18
:10FE5600010EF420E26EDFCFE7FF0D2A33EF7FF0CD
:10FE66000A500D5CD8A03AEF7FF03CEF7FF01EEF12
:10FE76007FF03EEF7FF00E0E03EC7EF0066E0D0E69
:10FE8600E7EC7DF00AC006F0220EE7EC7DF0000EEE
:10FE96000C6E5EEF7FF00C50010D000EF324D96E50
:10FEA600010EF420DA6EDF50066E000EE7EC7DF0F0
:10FEB6000C2A5EEF7FF00A500C5CD8A065EF7FF04D
:10FEC60067EF7FF04EEF7FF069EF7FF0830E066EEF
:10FED600010EE7EC7DF0210E0B6E760EE82EFED7B6
:10FEE6000B2EFCD700D0FF0E066E120EE7EC7DF04F
:10FEF600210E0B6E760EE82EFED70B2EFCD700D009
:10FF06001200000E066E000EE7EC7DF0D80E066EAF
:10FF1600060EE7EC7DF0990E066E070EE7EC7DF017
:10FF2600990E066E080EE7EC7DF00C0E086E085072
:10FF36008009066E090EE7EC7DF0190E066E0A0EB4
:10FF4600E7EC7DF02B0E066E0B0EE7EC7DF0230E34
:10FF5600066E0C0EE7EC7DF0000E066E0D0EE7EC5D
:10FF66007DF0800E066E0E0EE7EC7DF0000E066E3E
:10FF76000F0EE7EC7DF0000E066E110EE7EC7DF03D
:10FF8600FF0E066E120EE7EC7DF08A0E066E1D0E53
:10FF9600E7EC7DF0C70E066E1E0EE7EC7DF0FF0E59
:10FFA600066E1F0EE7EC7DF0000E066E200EE7ECE7
:10FFB6007DF0080E066E210EE7EC7DF0800E066ED3
:10FFC600230EE7EC7DF0000E066E240EE7EC7DF0C6
:10FFD600C30E066E310EE7EC7DF0270E066E330E6D
:10FFE600E7EC7DF00A0E066E370EE7EC7DF0120E9A
:0AFFF600066E390EE7EC7DF01200F4
:020000040020DA
:08000000FFFFFFFFFFFFFFFF00
:020000040030CA
:0E000000FF291F3CFFBD81FF0FC00FE00F4026
:00000001FF
