:020000040000FA
:040000005AEF09F0BA
:101000000031336835340000E1EC09F0BAEC09F046
:1010100070EC09F0D6EC09F0000E066E010EC9EC7A
:1010200009F0800E066E010EC9EC09F0810E066E05
:10103000010EC9EC09F0210E0E6E760EE82EFED7D9
:101040000E2EFCD700D0B8EC08F0000E016E010E99
:10105000026E010E036E100E046E34EC09F00E0EDB
:10106000A9EC09F0066E0D0EC9EC09F0080E066E2B
:10107000220EC9EC09F0000E126E000E116E12BEA7
:101080004BEF08F0125009E1080E115CD8A04BEFAD
:1010900008F04DEF08F051EF08F070EF08F070EF36
:1010A00008F0000E1124D96E010E1220DA6EDF5006
:1010B000066E000EC9EC09F0114A122A12BE6AEF40
:1010C00008F0125009E1080E115CD8A06AEF08F090
:1010D0006CEF08F051EF08F070EF08F070EF08F0D7
:1010E000830E066E010EC9EC09F0210E0E6E760E0F
:1010F000E82EFED70E2EFCD700D0FF0E066E120E85
:10110000C9EC09F0000E126E000E116E12BE92EFC5
:1011100008F0125009E1040E115CD8A092EF08F01B
:1011200094EF08F098EF08F070EF08F070EF08F017
:10113000A30E0E6E550EE82EFED70E2EFCD700F035
:10114000114A122A12BEAEEF08F0125009E1040E45
:10115000115CD8A0AEEF08F0B0EF08F098EF08F0FF
:1011600070EF08F070EF08F070EF08F000EF00F09B
:10117000000E066E000EC9EC09F0D80E066E060EC3
:10118000C9EC09F0990E066E070EC9EC09F0990E2C
:10119000066E080EC9EC09F00C0E086E08508009A6
:1011A000066E090EC9EC09F0190E066E0A0EC9EC9E
:1011B00009F02B0E066E0B0EC9EC09F0230E066E1D
:1011C0000C0EC9EC09F0000E066E0D0EC9EC09F00C
:1011D000800E066E0E0EC9EC09F0000E066E0F0EA4
:1011E000C9EC09F0000E066E110EC9EC09F0FF0EF5
:1011F000066E120EC9EC09F0880E066E1D0EC9ECC3
:1012000009F0C70E066E1E0EC9EC09F0FF0E066E41
:101210001F0EC9EC09F0000E066E200EC9EC09F095
:10122000080E066E210EC9EC09F0800E066E230E24
:10123000C9EC09F0000E066E240EC9EC09F0C30ECD
:10124000066E310EC9EC09F0270E066E330EC9EC9E
:1012500009F00A0E066E370EC9EC09F0120E066E82
:10126000390EC9EC09F0120003C005F004C006F005
:1012700001C007F002C008F040EF09F040EF09F0AC
:1012800005C0F6FF06C0F7FF054A062A07C0D9FFCA
:1012900008C0DAFF074A082A0800F5CFDFFFDF5051
:1012A000D8A455EF09F057EF09F040EF09F059EFD6
:1012B00009F0120001EE00F011EE00F0EE6AE550C8
:1012C000E150FCE1E250FAE1136A126A116A106A15
:1012D0000F6A000EF86E100EF76E000104EF08F0B2
:1012E0008B809490110E016E3A0EE82EFED7012EDF
:1012F000FCD700D09480110E016E3A0EE82EFED776
:10130000012EFCD700D01200026E6FCF01F0A49E18
:1013100002C06FFF8CEF09F0A4AE91EF09F093EFDC
:1013200009F08CEF09F06FCF03F003501200026E4A
:101330006FCF01F0A49E02C06FFF9FEF09F0A4AE33
:10134000A4EF09F0A6EF09F09FEF09F0A8EF09F06C
:101350001200056E8A9805507F0B056E055097ECBC
:1013600009F0000E84EC09F0046E8A880450B9EF8D
:1013700009F0120093920F01399393843995939653
:101380003997939839998A886D9E6D8C200E6C6E72
:101390001200076E8A9807508009076E075097EC75
:1013A00009F0065097EC09F08A8812008B928B9412
:1013B000040E016E3E0EE82EFED7012EFCD78B8464
:1013C000120094808B9494940F013A958B9294928E
:0213D000120009
:020000040020DA
:08000000FFFFFFFFFFFFFFFF00
:020000040030CA
:0E000000FF291F3CFFBD81FF0FC00FE00F4026
:00000001FF
