:020000040000FA
:04000000B6EF7DF0EA
:10FB5C0094808B9494940F013A958B92949212000A
:10FB6C0000EE46F0150EEE6AE806FDE1000194EF9A
:10FB7C007EF08B928B94040E016E3E0EE82EFED717
:10FB8C00012EFCD78B841200076E8A9807508009CF
:10FB9C00076E0750F7EC7DF00650F7EC7DF08A8885
:10FBAC00120093920F013993938439959396399758
:10FBBC00939839998A886D9E6D8C200E6C6E12000C
:10FBCC00056E8A9805507F0B056E0550F7EC7DF09D
:10FBDC00000E09EC7EF0046E8A880450F6EF7DF07E
:10FBEC001200026E6FCF01F0A49E02C06FFFFFEFF8
:10FBFC007DF0A4AE04EF7EF006EF7EF0FFEF7DF01B
:10FC0C0008EF7EF01200026E6FCF01F0A49E02C0CE
:10FC1C006FFF11EF7EF0A4AE16EF7EF018EF7EF0C2
:10FC2C0011EF7EF06FCF03F0035012008B80949095
:10FC3C00110E016E3A0EE82EFED7012EFCD700D025
:10FC4C009480110E016E3A0EE82EFED7012EFCD7D1
:10FC5C0000D01200420E0B6E260E0C6E270E0D6E8F
:10FC6C00280E0E6E290E0F6E300E106E310E116EA8
:10FC7C00320E126E330E136E340E146E20EE0BF029
:10FC8C0000EE01F0090EDBCFEBFFE806FCE24FEFD4
:10FC9C007EF01200AEEC7DF0D7EC7DF01CEC7EF02B
:10FCAC00BFEC7DF0000E066E010ECAEC7DF0800EEE
:10FCBC00066E010ECAEC7DF0810E066E010ECAECCA
:10FCCC007DF0210E096E760EE82EFED7092EFCD79C
:10FCDC0000D0FDEC7EF01200420E0C6E260E0D6E66
:10FCEC00000E0E6E010E0F6E020E106E03C011F0A0
:10FCFC000250126E01C013F00550146E04C015F0C2
:10FD0C0006C016F020EE0CF000EE01F00A0EDBCF70
:10FD1C00EBFFE806FCE293EF7EF0120030EC7EF095
:10FD2C0020EE31F0090EEBCFDBFFE806FCE220EE13
:10FD3C0051F010EE27F0090EDBCFE3FFE806FCE2F2
:10FD4C0031C027F032C028F033C029F034C02AF07B
:10FD5C0035C02BF036C02CF037C02DF038C02EF04B
:10FD6C0039C02FF03AC030F0010E026E010E016E58
:10FD7C00FF0E036EFE0E056EFE0E046E110E066E69
:10FD8C0072EC7EF020EE3BF00A0EEBCFDBFFE806C8
:10FD9C00FCE220EE46F010EE1CF00A0EDBCFE3FF87
:10FDAC00E806FCE23BC01CF03CC01DF03DC01EF060
:10FDBC003EC01FF03FC020F040C021F041C022F0F7
:10FDCC0042C023F043C024F044C025F045C026F0C7
:10FDDC0050EC7EF0270E086E000E096E0A0E0A6EAD
:10FDEC0079EC7FF00300FBEF7EF000EF00F0000EEB
:10FDFC00066E000ECAEC7DF0D80E066E060ECAEC2E
:10FE0C007DF04C0E066E070ECAEC7DF0CC0E066E25
:10FE1C00080ECAEC7DF00C0E086E08508009066EB8
:10FE2C00090ECAEC7DF0190E066E0A0ECAEC7DF0B6
:10FE3C002B0E066E0B0ECAEC7DF0230E066E0C0E0E
:10FE4C00CAEC7DF0000E066E0D0ECAEC7DF0800E35
:10FE5C00066E0E0ECAEC7DF0000E066E0F0ECAEC8E
:10FE6C007DF0000E066E110ECAEC7DF0FF0E066ED4
:10FE7C00120ECAEC7DF08A0E066E1D0ECAEC7DF0D9
:10FE8C00C70E066E1E0ECAEC7DF0FF0E066E1F0E20
:10FE9C00CAEC7DF0000E066E200ECAEC7DF0080E4A
:10FEAC00066E210ECAEC7DF0800E066E230ECAEC97
:10FEBC007DF0000E066E240ECAEC7DF0C30E066EAD
:10FECC00310ECAEC7DF0270E066E330ECAEC7DF0B7
:10FEDC000A0E066E370ECAEC7DF0120E066E390E47
:10FEEC00CAEC7DF01200000E0E6E92EF7FF00E50F9
:10FEFC00010DF3500824D96EF4500920DA6E0E501F
:10FF0C00010D000EF324E16E010EF420E26EDFCF42
:10FF1C00E7FF0E2A92EF7FF00A500E5CD8A099EF03
:10FF2C007FF09BEF7FF07DEF7FF09DEF7FF00E0E6B
:10FF3C00E6EC7DF0066E0D0ECAEC7DF00AC006F004
:10FF4C00220ECAEC7DF0000E0D6EBDEF7FF00D5051
:10FF5C00010D000EF324D96E010EF420DA6EDF5081
:10FF6C00066E000ECAEC7DF00D2ABDEF7FF00A5034
:10FF7C000D5CD8A0C4EF7FF0C6EF7FF0ADEF7FF043
:10FF8C00C8EF7FF0830E066E010ECAEC7DF0210ED9
:10FF9C000B6E760EE82EFED70B2EFCD700D0120E71
:10FFAC00E6EC7DF00C6EE1EF7FF0120EE6EC7DF0EE
:10FFBC000C6EE1EF7FF00CA6E6EF7FF0E8EF7FF040
:10FFCC00DBEF7FF0EAEF7FF0410E0B6EEE0EE82ECA
:10FFDC00FED70B2EFCD700D0FF0E066E120ECAEC0D
:10FFEC007DF0210E0B6E760EE82EFED70B2EFCD775
:04FFFC0000D012001F
:020000040020DA
:08000000FFFFFFFFFFFFFFFF00
:020000040030CA
:0E000000FF291F3CFFBD81FF0FC00FE00F4026
:00000001FF
