:020000040000FA
:04000000BDEF7DF0E3
:10FB6A0094808B9494940F013A958B9294921200FC
:10FB7A0000EE46F0150EEE6AE806FDE1000117EF09
:10FB8A007FF08B928B94040E016E3E0EE82EFED708
:10FB9A00012EFCD78B841200076E8A9807508009C1
:10FBAA00076E0750FEEC7DF00650FEEC7DF08A8869
:10FBBA00120093920F01399393843995939639974A
:10FBCA00939839998A886D9E6D8C200E6C6E1200FE
:10FBDA00056E8A9805507F0B056E0550FEEC7DF088
:10FBEA00000E10EC7EF0046E8A880450FDEF7DF062
:10FBFA001200026E6FCF01F0A49E02C06FFF06EFE3
:10FC0A007EF0A4AE0BEF7EF00DEF7EF006EF7EF0F5
:10FC1A000FEF7EF01200026E6FCF01F0A49E02C0B9
:10FC2A006FFF18EF7EF0A4AE1DEF7EF01FEF7EF09F
:10FC3A0018EF7EF06FCF03F0035012008B80949080
:10FC4A00110E016E3A0EE82EFED7012EFCD700D017
:10FC5A009480110E016E3A0EE82EFED7012EFCD7C3
:10FC6A0000D01200420E0B6E260E0C6E120E0D6E96
:10FC7A00130E0E6E140E0F6E150E106E160E116EFA
:10FC8A00170E126E180E136E190E146E20EE0BF06C
:10FC9A0000EE01F0090EDBCFEBFFE806FCE256EFBF
:10FCAA007EF01200B5EC7DF0DEEC7DF023EC7EF008
:10FCBA00C6EC7DF0000E066E010ED1EC7DF0800ED2
:10FCCA00066E010ED1EC7DF0810E066E010ED1ECAE
:10FCDA007DF0210E096E760EE82EFED7092EFCD78E
:10FCEA0000D084EC7FF01200420E0C6E260E0D6ED0
:10FCFA00000E0E6E010E0F6E020E106E03C011F092
:10FD0A000250126E01C013F00550146E04C015F0B3
:10FD1A0006C016F020EE0CF000EE01F00A0EDBCF62
:10FD2A00EBFFE806FCE29AEF7EF0120003C005F052
:10FD3A0004C006F001C007F002C008F0A7EF7EF089
:10FD4A00A7EF7EF005C0D9FF06C0DAFF054A062AEA
:10FD5A0007C0E1FF08C0E2FF074A082ADFCFE7FF32
:10FD6A00E750D8A4BBEF7EF0BDEF7EF0A7EF7EF0A0
:10FD7A00BFEF7EF01200000E016E010E026E09C086
:10FD8A0003F00AC004F09BEC7EF00E0EEDEC7DF061
:10FD9A00066E0D0ED1EC7DF00B0E066E220ED1EC26
:10FDAA007DF0000E0C6E0A0E0C64DEEF7EF0E0EFC2
:10FDBA007EF0E4EF7EF0FCEF7EF0FCEF7EF00C507C
:10FDCA00010D000EF324D96E010EF420DA6EDF5015
:10FDDA00066E000ED1EC7DF00C2A0A0E0C64F8EFC8
:10FDEA007EF0FAEF7EF0E4EF7EF0FCEF7EF0830E19
:10FDFA00066E010ED1EC7DF0210E0B6E760EE82E0A
:10FE0A00FED70B2EFCD700D0FF0E066E120ED1ECD9
:10FE1A007DF0210E0B6E760EE82EFED70B2EFCD748
:10FE2A0000D0120037EC7EF020EE31F0090EEBCF55
:10FE3A00DBFFE806FCE220EE51F010EE27F0090E97
:10FE4A00DBCFE3FFE806FCE231C027F032C028F03E
:10FE5A0033C029F034C02AF035C02BF036C02CF05C
:10FE6A0037C02DF038C02EF039C02FF03AC030F02C
:10FE7A00010E026E010E016EFF0E036EFE0E056E7E
:10FE8A00FE0E046E110E066E79EC7EF020EE3BF04B
:10FE9A000A0EEBCFDBFFE806FCE220EE46F010EE9E
:10FEAA001CF00A0EDBCFE3FFE806FCE23BC01CF0C5
:10FEBA003CC01DF03DC01EF03EC01FF03FC020F008
:10FECA0040C021F041C022F042C023F043C024F0D8
:10FEDA0044C025F045C026F057EC7EF0270E096E87
:10FEEA00000E0A6EC0EC7EF01C0E096E000E0A6E41
:10FEFA00C0EC7EF0030082EF7FF000EF00F0000E0E
:10FF0A00066E000ED1EC7DF0D80E066E060ED1EC10
:10FF1A007DF0990E066E070ED1EC7DF0990E066EF5
:10FF2A00080ED1EC7DF00C0E086E08508009066EA2
:10FF3A00090ED1EC7DF0190E066E0A0ED1EC7DF099
:10FF4A002B0E066E0B0ED1EC7DF0230E066E0C0EF8
:10FF5A00D1EC7DF0000E066E0D0ED1EC7DF0800E18
:10FF6A00066E0E0ED1EC7DF0000E066E0F0ED1EC71
:10FF7A007DF0000E066E110ED1EC7DF0FF0E066EBE
:10FF8A00120ED1EC7DF08A0E066E1D0ED1EC7DF0BC
:10FF9A00C70E066E1E0ED1EC7DF0FF0E066E1F0E0A
:10FFAA00D1EC7DF0000E066E200ED1EC7DF0080E2D
:10FFBA00066E210ED1EC7DF0800E066E230ED1EC7A
:10FFCA007DF0000E066E240ED1EC7DF0C30E066E97
:10FFDA00310ED1EC7DF0270E066E330ED1EC7DF09A
:10FFEA000A0E066E370ED1EC7DF0120E066E390E31
:06FFFA00D1EC7DF01200C5
:020000040020DA
:08000000FFFFFFFFFFFFFFFF00
:020000040030CA
:0E000000FF291F3CFFBD81FF0FC00FE00F4026
:00000001FF
