:020000040000FA
:0400000077EF7DF029
:10FADE0094808B9494940F013A958B929492120089
:10FAEE0000EE49F0150EEE6AE806FDE10001D4EFD6
:10FAFE007EF08B928B94040E016E3E0EE82EFED796
:10FB0E00012EFCD78B841200076E8A98075080094D
:10FB1E00076E0750B8EC7DF00650B8EC7DF08A8881
:10FB2E00120093920F0139939384399593963997D6
:10FB3E00939839998A886D9E6D8C200E6C6E12008A
:10FB4E00056E8A9805507F0B056E0550B8EC7DF05A
:10FB5E00000ECAEC7DF0046E8A880450B7EF7DF07B
:10FB6E001200026E6FCF01F0A49E02C06FFFC0EFB5
:10FB7E007DF0A4AEC5EF7DF0C7EF7DF0C0EF7DF058
:10FB8E00C9EF7DF01200026E6FCF01F0A49E02C08D
:10FB9E006FFFD2EF7DF0A4AED7EF7DF0D9EF7DF001
:10FBAE00D2EF7DF06FCF03F0035012008B80949054
:10FBBE00110E016E3A0EE82EFED7012EFCD700D0A4
:10FBCE009480110E016E3A0EE82EFED7012EFCD750
:10FBDE0000D01200420E0B6E260E0C6E000E0D6E35
:10FBEE00010E0E6E010E0F6EC00E106E000E116E17
:10FBFE00010E126E000E136E010E146E20EE0BF03F
:10FC0E0000EE01F0090EDBCFEBFFE806FCE210EF91
:10FC1E007EF01200420E0C6E260E0D6E000E0E6E53
:10FC2E00010E0F6E020E106E03C011F00250126E16
:10FC3E0001C013F00550146E04C015F006C016F086
:10FC4E0020EE0CF000EE01F00A0EDBCFEBFFE80623
:10FC5E00FCE232EF7EF0120003C005F004C006F0A5
:10FC6E0001C007F002C008F03FEF7EF03FEF7EF0DC
:10FC7E0005C0D9FF06C0DAFF054A062A07C0E1FF14
:10FC8E0008C0E2FF074A082ADFCFE7FFE750D8A4F3
:10FC9E0053EF7EF055EF7EF03FEF7EF057EF7EF0A4
:10FCAE001200000E066E000E8BEC7DF0D80E066E66
:10FCBE00060E8BEC7DF0990E066E070E8BEC7DF02A
:10FCCE00990E066E080E8BEC7DF00C0E086E085029
:10FCDE008009066E090E8BEC7DF0190E066E0A0E6B
:10FCEE008BEC7DF02B0E066E0B0E8BEC7DF0230E47
:10FCFE00066E0C0E8BEC7DF0000E066E0D0E8BEC70
:10FD0E007DF0800E066E0E0E8BEC7DF0000E066EF4
:10FD1E000F0E8BEC7DF0000E066E110E8BEC7DF04F
:10FD2E00FF0E066E120E8BEC7DF08A0E066E1D0E09
:10FD3E008BEC7DF0C70E066E1E0E8BEC7DF0FF0E6B
:10FD4E00066E1F0E8BEC7DF0000E066E200E8BECF9
:10FD5E007DF0080E066E210E8BEC7DF0800E066E89
:10FD6E00230E8BEC7DF0000E066E240E8BEC7DF0D8
:10FD7E00C30E066E310E8BEC7DF0270E066E330E23
:10FD8E008BEC7DF00A0E066E370E8BEC7DF0120EAC
:10FD9E00066E390E8BEC7DF01200F1EC7DF020EE4C
:10FDAE0034F0090EEBCFDBFFE806FCE220EE54F058
:10FDBE0010EE28F0090EDBCFE3FFE806FCE234C0BC
:10FDCE0028F035C029F036C02AF037C02BF038C0E5
:10FDDE002CF039C02DF03AC02EF03BC02FF03CC0B5
:10FDEE0030F03DC031F0000E026E010E016EFF0EBE
:10FDFE00036EFE0E056EFE0E046E110E066E11ECF7
:10FE0E007EF020EE3EF00A0EEBCFDBFFE806FCE2C2
:10FE1E0020EE49F010EE1DF00A0EDBCFE3FFE806F0
:10FE2E00FCE23EC01DF03FC01EF040C01FF041C0BE
:10FE3E0020F042C021F043C022F044C023F045C060
:10FE4E0024F046C025F047C026F048C027F06FECDE
:10FE5E007DF098EC7DF0DDEC7DF080EC7DF0000E19
:10FE6E00066E010E8BEC7DF0800E066E010E8BEC95
:10FE7E007DF0810E066E010E8BEC7DF0210E1C6E58
:10FE8E00760EE82EFED71C2EFCD700D058EC7EF056
:10FE9E00000E016E010E026E280E036E000E046E31
:10FEAE0033EC7EF00E0EA7EC7DF0066E0D0E8BEC95
:10FEBE007DF00B0E066E220E8BEC7DF0000E326E78
:10FECE000A0E32646DEF7FF06FEF7FF073EF7FF00D
:10FEDE008BEF7FF08BEF7FF03250010D000EF3248D
:10FEEE00D96E010EF420DA6EDF50066E000E8BEC2A
:10FEFE007DF0322A0A0E326487EF7FF089EF7FF0B1
:10FF0E0073EF7FF08BEF7FF0830E066E010E8BEC9E
:10FF1E007DF0210E1C6E760EE82EFED71C2EFCD721
:10FF2E0000D0FF0E066E120E8BEC7DF0210E1C6EB5
:10FF3E00760EE82EFED71C2EFCD700D0000E016EDA
:10FF4E00010E026E1D0E036E000E046E33EC7EF07B
:10FF5E000E0EA7EC7DF0066E0D0E8BEC7DF00B0EEB
:10FF6E00066E220E8BEC7DF0000E336E0A0E33649D
:10FF7E00C3EF7FF0C5EF7FF0C9EF7FF0E1EF7FF0C9
:10FF8E00E1EF7FF03350010D000EF324D96E010E18
:10FF9E00F420DA6EDF50066E000E8BEC7DF0332A05
:10FFAE000A0E3364DDEF7FF0DFEF7FF0C9EF7FF0F5
:10FFBE00E1EF7FF0830E066E010E8BEC7DF0210ECD
:10FFCE001C6E760EE82EFED71C2EFCD700D0FF0E30
:10FFDE00066E120E8BEC7DF0210E1C6E760EE82E48
:10FFEE00FED71C2EFCD700D00300FEEF7FF000EFF3
:02FFFE0000F011
:020000040020DA
:08000000FFFFFFFFFFFFFFFF00
:020000040030CA
:0E000000FF291F3CFFBD81FF0FC00FE00F4026
:00000001FF
