:020000040000FA
:040000005BEF09F0B9
:091000000050726F70726500006F
:10100A00E2EC09F0BBEC09F071EC09F0D7EC09F05D
:10101A00000E066E010ECAEC09F0800E066E010E75
:10102A00CAEC09F0810E066E010ECAEC09F0210E17
:10103A000E6E760EE82EFED70E2EFCD700D0B9EC37
:10104A0008F0000E016E010E026E010E036E100E04
:10105A00046E35EC09F00E0EAAEC09F0066E0D0EC0
:10106A00CAEC09F0080E066E220ECAEC09F0000E50
:10107A00126E000E116E12BE4CEF08F0125009E10A
:10108A00080E115CD8A04CEF08F04EEF08F052EFB2
:10109A0008F071EF08F071EF08F0000E1124D96E14
:1010AA00010E1220DA6EDF50066E000ECAEC09F04D
:1010BA00114A122A12BE6BEF08F0125009E1080E0B
:1010CA00115CD8A06BEF08F06DEF08F052EF08F052
:1010DA0071EF08F071EF08F0830E066E010ECAEC8C
:1010EA0009F0210E0E6E760EE82EFED70E2EFCD7D4
:1010FA0000D0FF0E066E120ECAEC09F0000E126E38
:10110A00000E116E12BE93EF08F0125009E1040EA0
:10111A00115CD8A093EF08F095EF08F099EF08F06A
:10112A0071EF08F071EF08F0A30E0E6E550EE82E5F
:10113A00FED70E2EFCD700F0114A122A12BEAFEFCC
:10114A0008F0125009E1040E115CD8A0AFEF08F0C4
:10115A00B1EF08F099EF08F071EF08F071EF08F0BD
:10116A0071EF08F000EF00F0000E066E000ECAECF8
:10117A0009F0D80E066E060ECAEC09F0990E066E34
:10118A00070ECAEC09F0990E066E080ECAEC09F0B1
:10119A000C0E086E08508009066E090ECAEC09F09A
:1011AA00190E066E0A0ECAEC09F02B0E066E0B0E0D
:1011BA00CAEC09F0230E066E0C0ECAEC09F0000EFA
:1011CA00066E0D0ECAEC09F0800E066E0E0ECAEC03
:1011DA0009F0000E066E0F0ECAEC09F0000E066E3C
:1011EA00110ECAEC09F0FF0E066E120ECAEC09F0D7
:1011FA00880E066E1D0ECAEC09F0C70E066E1E0E8C
:10120A00CAEC09F0FF0E066E1F0ECAEC09F0000EBA
:10121A00066E200ECAEC09F0080E066E210ECAEC04
:10122A0009F0800E066E230ECAEC09F0000E066E57
:10123A00240ECAEC09F0C30E066E310ECAEC09F090
:10124A00270E066E330ECAEC09F00A0E066E370E2A
:10125A00CAEC09F0120E066E390ECAEC09F0120039
:10126A0003C005F004C006F001C007F002C008F090
:10127A0041EF09F041EF09F005C0F6FF06C0F7FF9C
:10128A00054A062A07C0D9FF08C0DAFF074A082A12
:10129A000800F5CFDFFFDF50D8A456EF09F058EF6A
:1012AA0009F041EF09F05AEF09F0120001EE00F0DF
:1012BA0011EE00F0EE6AE550E150FCE1E250FAE18D
:1012CA00136A126A116A106A0F6A000EF86E100E1B
:1012DA00F76E000105EF08F08B809490110E016EF5
:1012EA003A0EE82EFED7012EFCD700D09480110EBC
:1012FA00016E3A0EE82EFED7012EFCD700D012005E
:10130A00026E6FCF01F0A49E02C06FFF8DEF09F04D
:10131A00A4AE92EF09F094EF09F08DEF09F06FCFC8
:10132A0003F003501200026E6FCF01F0A49E02C0B8
:10133A006FFFA0EF09F0A4AEA5EF09F0A7EF09F03F
:10134A00A0EF09F0A9EF09F01200056E8A9805507E
:10135A007F0B056E055098EC09F0000E85EC09F03C
:10136A00046E8A880450BAEF09F0120093920F01B2
:10137A0039939384399593963997939839998A88AA
:10138A006D9E6D8C200E6C6E1200076E8A98075047
:10139A008009076E075098EC09F0065098EC09F09E
:1013AA008A8812008B928B94040E016E3E0EE82EF0
:1013BA00FED7012EFCD78B84120094808B949494D0
:0A13CA000F013A958B9294921200E5
:020000040020DA
:08000000FFFFFFFFFFFFFFFF00
:020000040030CA
:0E000000FF291F3CFFBD81FF0FC00FE00F4026
:00000001FF
